:1000000000308A00A5280000FF00030E8301A10034
:100010000A08A0008A010408A2007708A300780853
:10002000A4007908A5007A08A600831383120B1E8A
:100030001B288B1830288B1E1F280B1933282208E9
:1000400084002308F7002408F8002508F900260892
:10005000FA0020088A00210E8300FF0E7F0E09009F
:100060008A110A1236288A110A123C280130AD067C
:100070008B108A110A121F28831686148312861881
:1000800047282D14A901AA01AB01AC01A8018101E7
:100090000B118A110A121F282E08003A03196C2826
:1000A000013A03196F28033A03197228013A031918
:1000B0007528073A03197828013A03197B28033A6F
:1000C00003197E28013A031981280F3A031984285D
:1000D000013A031987288A283F30F8008C28063017
:1000E000F8008C285B30F8008C284F30F8008C2802
:1000F0006630F8008C286D30F8008C287D30F800D0
:100100008C280730F8008C287F30F8008C286F305E
:10011000F8008C280030F80008002E30840083138B
:1001200000080319A4280630F800BF30F700640067
:10013000F70B9728F80B95287A30F700F70B9E28D5
:10014000A1286400800B9328080003081F3983004E
:100150000A30A700A801A901AA01AB01AC012D1426
:1001600083161F149F141F159F1107309C008313C3
:10017000033086000030850088001F149F141F156F
:100180009F110108C03905388100831281018B1647
:10019000C0308B040B1683168511831285118316CC
:1001A0000510831205142C08AE004C20831688011C
:1001B0008312780888002708AE008D20831605106A
:1001C0008312051083168510831285142B08AE0048
:1001D0004C20831688018312780888002708AE0017
:1001E0008D208316851083128510831605118312C6
:1001F00005152A08AE004C20831688018312780862
:1002000088002708AE008D20831605118312051182
:1002100083168511831285152908AE004C2083169C
:1002200088018312780888002708AE008D202D18D9
:100230003529A80A0A30AE008D2028080F3C031883
:100240003529A801A90A2908093C03183529A9015B
:10025000AA0A2A08053C03183529AA01AB0A2B086B
:0E026000093C03183529AB01AC0ACB2863001A
:02400E00723FFF
:00000001FF
;PIC16F877A
;CRC=8F1F  CREATED="10-abr.-25 20:54"
