:1000000000308A008E280000FF00030E8301A1004B
:100010000A08A0008A010408A2007708A300780853
:10002000A4007908A5007A08A600831383120B1E8A
:100030001B288B182C28220884002308F70024088A
:10004000F8002508F9002608FA0020088A00210E89
:100050008300FF0E7F0E09008A110A122F2801303B
:10006000AD068B108A110A121B282E08003A0319BC
:100070005528013A03195828033A03195B28013A15
:1000800003195E28073A03196128013A0319642805
:10009000033A03196728013A03196A280F3A03192A
:1000A0006D28013A0319702873283F30F80075282D
:1000B0000630F80075285B30F80075284F30F800DE
:1000C00075286630F80075286D30F80075287D3089
:1000D000F80075280730F80075287F30F80075287B
:1000E0006F30F80075280030F80008002E308400CA
:1000F0008313000803198D280630F800BF30F7007D
:100100006400F70B8028F80B7E287A30F700F70B95
:1001100087288A286400800B7C28080003081F3980
:1001200083000A30A700A801A901AA01AB01AC0114
:100130002D1483161F149F141F159F1107309C0048
:100140008313033086000030850088001F149F143D
:100150001F159F11C03083128B040B168316851157
:100160008312851183160510831205142C08AE0026
:100170003520831688018312780888002708AE008E
:1001800076208316051083120510831685108312BE
:1001900085142B08AE003520831688018312780859
:1001A00088002708AE0076208316851083128510FC
:1001B00083160511831205152A08AE003520831613
:1001C00088018312780888002708AE0076208316FD
:1001D00005118312051183168511831285152908CF
:1001E000AE0035208316880183127808880027081E
:1001F000AE0076202D181829A80A0A30AE00762005
:1002000028080F3C03181829A801A90A2908093C45
:1002100003181829A901AA0A2A08053C0318182955
:10022000AA01AB0A2B08093C03181829AB01AC0A38
:10023000831686148312861823292D14A901AA0176
:0A024000AB01AC01A801AE28630079
:02400E00723FFF
:00000001FF
;PIC16F877A
;CRC=39F3  CREATED="09-abr.-25 23:26"
