:1000000000308A00F6280000FF00030E8301A100E3
:100010000A08A0008A010408A2007708A300780853
:10002000A4007908A5007A08A600831383120B1E8A
:100030001B288B1830288B1E1F280B1933282208E9
:1000400084002308F7002408F8002508F900260892
:10005000FA0020088A00210E8300FF0E7F0E09009F
:100060008A110A1236288A110A129B28A808031935
:100070003B2800303C280130A8008B108B108A11DF
:100080000A121F283108003A03196228013A03199D
:100090006528033A03196828013A03196B28073ABF
:1000A00003196E28013A03197128033A03197428B9
:1000B000013A031977280F3A03197A28013A0319EC
:1000C0007D2880283F30F80082280630F8008228FA
:1000D0005B30F80082284F30F80082286630F80044
:1000E00082286D30F80082287D30F80082280730A1
:1000F000F80082287F30F80082286F30F8008228CC
:100100000030F80008003130840083130008031920
:100110009A280630F800BF30F7006400F70B8D28EE
:10012000F80B8B287A30F700F70B94289728640097
:10013000800B892808002D08FC3E0318E428043EA3
:10014000EE28831685010130831285002C08B1004A
:100150004220831688018312780888002E08B10097
:100160008320E428831685010230831285002B0842
:10017000B1004220831688018312780888002E0877
:10018000B1008320E42883168501043083128500A2
:100190002A08B1004220831688018312780888005B
:1001A0002E08B1008320E4288316850108308312CD
:1001B00085002908B100422083168801831278083F
:1001C00088002E08B1008320AD0A2D08033C031CD3
:1001D000AD0181010B118A110A121F280A108A1021
:1001E0000A118207A128B228C328D42803081F397E
:1001F0008300A801A901AA01AB01AC01AD01AE01C8
:1002000083161F149F141F159F1107309C00831322
:10021000003085008800033086001F149F141F15CE
:100220009F110108C03905388100831281018B16A6
:100230000B16C0308B04831686148312861825296A
:10024000A901AA01AB01AC01A801A80803194C2916
:100250000430AF00A7018B1BA7178B13FA30B10036
:100260008320A71B8B17AF0B2A29A90A2908093C51
:1002700003183C29A901AA0A2A08053C03184229A7
:10028000AA01AB0A2B08093C03184829AB01AC0AA8
:0C0290002C08053C031CAC011B2963007A
:02400E00723FFF
:00000001FF
;PIC16F877A
;CRC=BF28  CREATED="09-abr.-25 22:15"
