:1000000000308A00EC280000FF00030E8301A100ED
:100010000A08A0008A010408A2007708A300780853
:10002000A4007908A5007A08A600831383120B1E8A
:100030001B288B1830288B1E1F280B1933282208E9
:1000400084002308F7002408F8002508F900260892
:10005000FA0020088A00210E8300FF0E7F0E09009F
:100060008A110A1236288A110A128328A70803194E
:100070003B2800303C280130A7008B108B108A11E0
:100080000A121F282F08003A03196228013A03199F
:100090006528033A03196828013A03196B28073ABF
:1000A00003196E28013A03197128033A03197428B9
:1000B000013A031977280F3A03197A28013A0319EC
:1000C0007D2880283F30F80082280630F8008228FA
:1000D0005B30F80082284F30F80082286630F80044
:1000E00082286D30F80082287D30F80082280730A1
:1000F000F80082287F30F80082286F30F8008228CC
:100100000030F80008002C08FC3E0318C028043E0C
:10011000CA28831685010130831285002B08AF00A1
:10012000422083168801831278088800C02883162D
:1001300085010230831285002A08AF004220831611
:100140008801831278088800C0288316850104304E
:10015000831285002908AF0042208316880183128C
:1001600078088800C028831685010830831285002E
:100170002808AF004220831688018312780888007F
:10018000AC0A2C08033C031CAC0181010B118A1141
:100190000A121F280A108A100A1182078928972834
:1001A000A528B3282E308400831300080319E928FA
:1001B0000630F800BF30F7006400F70BDC28F80BBE
:1001C000DA287A30F700F70BE328E6286400800B82
:1001D000D8288A110A12222903081F398300A7018F
:1001E000A801A901AA01AB01AC0183161F149F1439
:1001F0001F159F1107309C00831300308500880075
:10020000033086001F149F141F159F110108C03969
:1002100005388100831281018B160B16C0308B04C8
:1002200083168614831286181A29A801A901AA0127
:10023000AB01A701A70803193B290430AD00FA3030
:10024000AE00D228AD0B1F29A80A2808093C0318C4
:100250002B29A801A90A2908053C03183129A9015D
:10026000AA0A2A08093C03183729AA01AB0A2B0855
:0A027000053C031CAB0110296300DC
:02400E00723FFF
:00000001FF
;PIC16F877A
;CRC=2A7B  CREATED="08-abr.-25 14:45"
