:1000000007308A00202F00008C29E939F432ED30C6
:100010002036E939F43700000C2AE536701DA012AD
:1000200075008C22EE31E9326E326510ED37F4370F
:1000300072008C20F030E730A0366F3A6F39000143
:100040008C22EE31E9326E326510CC22C4390001C7
:100050008C20F030E7302026452273000C28D7266C
:10006000A0346E3B613669326F000C28D726201F02
:10007000A018301825000C152A15D02B4D103D1056
:10008000A53AA5122A152A008C21EF366137E437EC
:1000900020376F00F232E337EE37E334E437000005
:1000A000B030840083130008031963280630F80079
:1000B000F701F70B5928F80B58287B30F700F70B9E
:1000C0005F28800B56280800831637186B28831288
:1000D00088126D2883168312881683168812B71823
:1000E0007528831208127728831683120816831640
:1000F000081237197F2883128811812883168312EA
:10010000881583168811B7198928831208118B283E
:1001100083168312081583160811000083128814B1
:10012000831688100330F700F70B94288312881089
:1001300083168810831208008316B80188160030D1
:100140008312881A01308316B8040816003083120F
:10015000081A0130F7000310F70D77088316B8046A
:1001600088150030831288190130F700F70DF70D5C
:10017000FC30F70577088316B804081500308312A1
:1001800008190130F700F70DF70DF70DF830F705F6
:1001900077088316B8043808F8008312080083161D
:1001A0008810081088138312081083160810881608
:1001B00008168815081583128817831688130000FF
:1001C0008312881483168810000083129C207808FC
:1001D0008316B700831288108316881000008312DC
:1001E000881483168810F428F528000083129C20B8
:1001F00078088316B6008312881083168810881238
:10020000081288110811370EF700F030F70577084B
:100210003604F8007808B600B61BD728B408031DCA
:1002200015298312081017298316831208148316C0
:1002300008100000831288138316881300008312AD
:10024000881083168810350EB6000F30B6053608B4
:10025000B70083126420831635080F39B600B70043
:1002600083126420080028308316A8000C30A900EF
:100270000130AA000630AB00831288108316881064
:1002800083120810831608108312881383168813AC
:1002900088120812881108118810081088130F306E
:1002A000B0008312502001308316A7002708033CBA
:1002B000031C66290330B7008312642005308316BF
:1002C000B000831250208316A70A56290230B700C7
:1002D0008312642005308316B000831250208316E9
:1002E000A7012708033C031C8329A83027078400A3
:1002F00083130008AC00B4012C08B5008312CF2092
:100300008316A70A712983128A110A12B82F83163D
:10031000310B8B298E294030B2008F29B201013078
:100320003002B20732088038B300B4013308B50098
:100330008312CF20080083162F08073A831203196F
:10034000AB290B3A0319B229063A0319BE29023A1E
:100350000319C629CD2901308316B000B1008312DC
:100360008721D4298316B4010130B5008312CF2030
:1003700002308316B00083125020D4290130831636
:10038000B0000230B10083128721D4298316B40152
:100390001030B5008312CF20D42901308316B40069
:1003A0002F08B5008312CF2008000B088316AB007E
:1003B00083128B13831603178C170C140000000094
:1003C0000313AB1FE62983128B17831683120317BF
:1003D0000C087F390319472A83160313AB008312D5
:1003E00003170D0883160313AC00831203170F08BD
:1003F00083160313AD002B08AF0083129B218316D5
:100400002C08831203178D00831603132D08831203
:1004100003178F0003130B088316AE0083128B1390
:10042000831603178C170C14000000000313AE1F73
:100430001C2A83128B178316831203170C0D0E0DC3
:100440007F390319472A83160313AB00831203175E
:100450000D0883160313AC00831203170F088316CD
:100460000313AD002B08AF0083129B2183162C08C9
:10047000831203178D00831603132D0883120317AD
:100480008F008D0A03198F0A0313D529031703134D
:10049000080083162C08FA002B08840083137A18AE
:1004A00083170008AF002E08FA002D08840083137C
:1004B0007A18831700082F02031D752A2C08FA00EA
:1004C0002B08840083137A1883178008031D6B2A76
:1004D0000030F8008D2A2C08FA002B08AB0A03190B
:1004E000AC0AAD0A0319AE0A4A2A2C08FA002B08F6
:1004F000840083132C1883170008AF002E08FA001D
:100500002D08840083132E18831700082F02031868
:100510008B2AFF308C2A0130F800831208008316E2
:100520002E08F8012D020318982A2D08F700A42A96
:10053000F7010830AF00AD0DF70D2E087702031854
:10054000F700F80DAF0B9B2A831208000B088316E7
:10055000AC0083128B13831603178C170C14000046
:1005600000000313AC1FB72A83128B1783160318DE
:10057000F02A831203170C087F3983160313AC008B
:10058000831203170D0883160313AD00831203179C
:100590000F0883160313AE002C08AF0083129B21B3
:1005A00083162D08831203178D00831603132E085C
:1005B000831203178F0003130B088316AF008312F7
:1005C0008B13831603178C170C1400000000031301
:1005D000AF1FED2A83128B178316AB0BF02A1E2B4D
:1005E000831203170C0D0E0D7F3983160313AC0015
:1005F000831203170D0883160313AD00831203172C
:100600000F0883160313AE002C08AF0083129B2142
:1006100083162D08831203178D00831603132E08EB
:10062000831203178F008D0A03198F0A0310831694
:100630000313AB0B1C2B1E2B8312A62A831208005C
:10064000780883162B08AD006430AE0083128F2229
:1006500077088316AB0078083030031D362BAC1CAE
:100660003F2BAC193F2B2C1A2030392BAC112C12FC
:100670002C14F8077808AF0083129B2183162B08EF
:10068000AD000A30AE0083128F2277088316AB00CC
:1006900078083030031D522BAC19582B2C1C582BCA
:1006A0002C1A2030F8077808AF0083129B2183169C
:1006B0003030AB072B08AF0083129B2108003E307F
:1006C0000C1E602B99003E300C1E642B9900673085
:1006D0008400831380080319872B8316AC01040858
:1006E000AB002C10831B2C14000883120C1E762BDD
:1006F000990083162B08840083132C188317840A0F
:10070000031D852B8312850A831683126A2B0D30F5
:100710000C1E882B9900080083162C08AE002B08AD
:10072000AD002E08FA002D08840083137A18831771
:10073000800803199F2BAD0A0319AE0A912B2B08D1
:100740002D02F7002E08FA002C08031C2C0FFA02C9
:100750007708F800831208008316AC016730AB00FD
:10076000AE012630AD0083124922F808031D3A2C51
:10077000F03097050830F8001F08C73978049F004B
:100780001030F700F70BC22B00001F151F19C62BE6
:100790001E08FB000310FB0D3E300C1ECD2B9900F4
:1007A0003E300C1ED12B99007B088316AB001B300A
:1007B000AC002B08AD006430AE0083128F227708A6
:1007C0008316AB0078083030031DED2BAC1CF72BE3
:1007D000AC19F72B2C1A2030F02BAC112C122C1446
:1007E000F807780883120C1EF32B990083162B0848
:1007F000AD000A30AE0083128F2277088316AB005B
:1008000078083030031D0A2CAC19112C2C1C112C2B
:100810002C1A2030F807780883120C1E0D2C990032
:1008200083163030AB072B0883120C1E152C990051
:100830000D300C1E192C99000C3003178D00003060
:100840008F000310073083160313AB008312A62218
:100850007B088316AB001B30AC0083122023F60804
:100860000319392CF83083168700831207110C30D6
:100870009700122F8316AC016730AB00AE01333006
:10088000AD0083124922F808031D582C5F23113054
:1008900003178D0000308F000313D521F830831625
:1008A0008700831207148316870083120711122F03
:1008B0008316AC016730AB00AE014030AD0083124F
:1008C0004922F808031D732C5F23193003178D008C
:1008D00000308F000313D521F83083168700831270
:1008E00007109501122F8316AC016730AB00AE01E3
:1008F0004D30AD0083124922F808031D8D2C5F2373
:10090000203003178D0000308F000313D52183168C
:100910008601FF3083128600122F8316AC016730E8
:10092000AB00AE015A30AD0083124922F808031D16
:10093000A62C5F23283003178D0000308F0003138F
:10094000D5218316860183128601122F750883161E
:10095000AC007408AB0083128C2378088316AB00BC
:10096000AD016730AC007508AF007408AE002B080D
:10097000B000B0080319052D2D08FA002C088400DA
:1009800083137A1883170008B1002F08FA002E0885
:10099000840083137A188317000831020319EA2CA4
:1009A0002D08FA002C08840083137A188317000896
:1009B000B1002F08FA002E08840083137A188317D9
:1009C000000831020318E62CFF30E72C0130F80054
:1009D000072DF72C2D08FA002C08840083137A18B1
:1009E00083178008031DF72C0030F800072D2D0811
:1009F000FA002C08AC0A0319AD0A2F08FA002E08D9
:100A0000AE0A0319AF0AB003B92C0030F800F80899
:100A1000031DFC2E7508AC007408AB0083128C23F8
:100A2000673078078316A700A8010318A80A0130C9
:100A3000A900AA012A08270784008313281883170E
:100A400080080319372D2A082707840083132818E4
:100A500083170008AB002B082F3C0318332D2B08FD
:100A6000393C0318352DA901372DAA0A1A2DA908DA
:100A70000319452D2808AC002708AB0083128C23EE
:100A80007808033C03184E2D83162E30831203176B
:100A90008D0000308F000313D521122F83162808F4
:100AA000AC002708AB00B001AE010A30AF00AD01C9
:100AB0002B082C04031D5F2D0030F800522E300847
:100AC000B00A2B07840083132C1883170008B10089
:100AD00031082D3C031D782D0130AE003008B00ADE
:100AE0002B07840083132C1883170008B100852D71
:100AF00031082B3C031D852D3008B00A2B078400DC
:100B000083132C1883170008B10031082F3C0318F9
:100B1000482E3108393C031C482E3108303C031D57
:100B2000B12D30082B07840083132C18831700087D
:100B3000783C0319A52D30082B07840083132C184B
:100B400083170008583C031DB12D1030AF00B00AC8
:100B50003008B00A2B07840083132C188317000871
:100B6000B1002F080A3C031DF62D31082F3C031855
:100B7000F52D3108393C031CF52D0A30B2002D0843
:100B8000B300F701F801320803103318F707F70C28
:100B9000F80CB318F707F70CF80C3319F707F70C34
:100BA000F80CB319F707F70CF80C331AF707F70C22
:100BB000F80CB31AF707F70CF80C331BF707F70C10
:100BC000F80CB31BF707F70CF80C7808B2003030BC
:100BD00031023207AD003008B00A2B0784008313BE
:100BE0002C1883170008B100B52D482E2F08103C93
:100BF000031D482E3108603C0318052E31087A3C4D
:100C0000031C052E3108DF39062E3108B1003108EA
:100C10002F3C03180F2E3108393C0318172E3108CA
:100C2000403C0318482E3108463C031C482E31082E
:100C30002F3C0318282E3108393C031C282E2D0E7A
:100C4000B200F030B205303031023207AD00312E43
:100C50002D0EB200F030B205413031020A3E3207AB
:100C6000AD003008B00A2B07840083132C188317BB
:100C70000008B1003108603C0318452E31087A3C69
:100C8000031C452E3108DF39462E3108B100072EEE
:100C90002E0B502E2F080A3C031D502EAD09AD0A15
:100CA0002D08F8007808F6007608643C0318622ED8
:100CB0003530831203178D0000308F000313D521C8
:100CC000122F8316F8308700831207110C3097001B
:100CD00076088316AB002B08643C031CD12EAD01B3
:100CE0002B08AC000230AF007030AE001030B00006
:100CF000F701FA01AD0CAC0C031C842E2E08F7078B
:100D00000318FA0A2F08FA07FA0CF70CF90CF80C7A
:100D1000B00B7A2E7908AD007808AC002D08AF0032
:100D20002C08AE00B1016430B000F801F901F70100
:100D3000FA013108031D9F2E30080319B92E103017
:100D4000B2000310AE0DAF0DF70DFA0D31087A02A7
:100D5000031DAC2E30087702031CB52E3008F702B5
:100D6000031CFA033108FA020314F80DF90DB20B53
:100D7000A12E7908AD007808AC00AD0CAC0CAD0C20
:100D8000AC0CAD0C2C08831295008316AD0C2D0C09
:100D90003039F70083121708CF3977049700D32E24
:100DA0008316831295013B3003178D0000308F00AE
:100DB00003100A3083160313AB008312A6227608B1
:100DC0008316AB001B30AC00831220232530831622
:100DD000AF0083129B212A308316AF0083129B2120
:100DE0002A308316AF0083129B212A308316AF006E
:100DF00083129B21122F83164430831203178D0018
:100E000000308F000313D52101308316B00002306B
:100E1000B100831287214A3003178D0000308F0004
:100E20000313D5218A110A12E22F780803191D2F06
:100E300077088000840AF80B182F8A110A12EC2F09
:100E400003081F398300203083169900A6309800CC
:100E5000903083129800F601FB01FD01FC0183161E
:100E60001F149F141F159F1107309C0083138312BA
:100E7000A001A1017430A6006530A7006D30A80064
:100E80007030A9006530AA007230AB006130AC0050
:100E90007430AD007530AE007230AF006130B0001C
:100EA000B101B2016D30B3006F30B4007430B500E1
:100EB0006F30B6007230B7002030B8006F30B90024
:100EC0006E30BA00BB01BC01BD01BE01BF016D3077
:100ED000C0006F30C1007430C2006F30C300723088
:100EE000C4002030C5006F30C6006630C700C8009F
:100EF000C901CA01CB01CC016C30CD006530CE00F8
:100F00006430CF007330D0002030D1006F30D20079
:100F10006E30D300D401D501D601D701D801D90153
:100F20006C30DA006530DB006430DC007330DD00EB
:100F30002030DE006F30DF006630E000E100E201CB
:100F400070308316A0007730A1006D30A2003D30D4
:100F5000A300A401F501A030F400A6010030F800C0
:100F60000638831292009B30831692008312332935
:100F700083161F109F101F119F111F1383121F171D
:100F80009F1783169F1383121F14043003178D00BD
:100F900000308F000313D5218C1EFA2F8C1ECE2F0C
:100FA0001A088316A50025080D3C0319DB2F250818
:100FB0000A3C031DEE2F673026078400831380014F
:100FC0008312AC2B8316A601673084008313F701CC
:100FD0000D30F8008312152FFA2F831626080B3CCC
:100FE000031CF92F2608A60A673E840083132508F0
:080FF00080008312CC2F630086
:02400E00723FFF
:00000001FF
;PIC16F877A
;CRC=26CA  CREATED="14-abr.-25 13:58"
